{"abi":[{"type":"constructor","inputs":[{"name":"candidateNames","type":"string[]","internalType":"string[]"}],"stateMutability":"nonpayable"},{"type":"function","name":"addCandidates","inputs":[{"name":"candidateNames","type":"string[]","internalType":"string[]"}],"outputs":[],"stateMutability":"nonpayable"},{"type":"function","name":"candidates","inputs":[{"name":"","type":"uint256","internalType":"uint256"}],"outputs":[{"name":"name","type":"string","internalType":"string"},{"name":"voteCount","type":"uint256","internalType":"uint256"}],"stateMutability":"view"},{"type":"function","name":"chairperson","inputs":[],"outputs":[{"name":"","type":"address","internalType":"address"}],"stateMutability":"view"},{"type":"function","name":"endVote","inputs":[],"outputs":[],"stateMutability":"nonpayable"},{"type":"function","name":"giveRightToVote","inputs":[{"name":"voter","type":"address","internalType":"address"}],"outputs":[],"stateMutability":"nonpayable"},{"type":"function","name":"startVote","inputs":[],"outputs":[],"stateMutability":"nonpayable"},{"type":"function","name":"state","inputs":[],"outputs":[{"name":"","type":"uint8","internalType":"enum Ballot.State"}],"stateMutability":"view"},{"type":"function","name":"vote","inputs":[{"name":"candidate","type":"uint256","internalType":"uint256"}],"outputs":[],"stateMutability":"nonpayable"},{"type":"function","name":"voters","inputs":[{"name":"","type":"address","internalType":"address"}],"outputs":[{"name":"weight","type":"uint256","internalType":"uint256"},{"name":"voted","type":"bool","internalType":"bool"},{"name":"vote","type":"uint256","internalType":"uint256"}],"stateMutability":"view"},{"type":"function","name":"winningCandidate","inputs":[],"outputs":[{"name":"winnerName_","type":"string","internalType":"string"}],"stateMutability":"view"}],"bytecode":{"object":"0x608060405234801562000010575f80fd5b506040516200206d3803806200206d833981810160405281019062000036919062000428565b335f806101000a81548173ffffffffffffffffffffffffffffffffffffffff021916908373ffffffffffffffffffffffffffffffffffffffff1602179055506001805f805f9054906101000a900473ffffffffffffffffffffffffffffffffffffffff1673ffffffffffffffffffffffffffffffffffffffff1673ffffffffffffffffffffffffffffffffffffffff1681526020019081526020015f205f01819055505f60035f6101000a81548160ff021916908360028111156200010057620000ff62000477565b5b02179055505f5b8151811015620001a35760026040518060400160405280848481518110620001345762000133620004a4565b5b602002602001015181526020015f815250908060018154018082558091505060019003905f5260205f2090600202015f909190919091505f820151815f01908162000180919062000708565b5060208201518160010155505080806200019a9062000819565b91505062000107565b505062000865565b5f604051905090565b5f80fd5b5f80fd5b5f80fd5b5f601f19601f8301169050919050565b7f4e487b71000000000000000000000000000000000000000000000000000000005f52604160045260245ffd5b6200020882620001c0565b810181811067ffffffffffffffff821117156200022a5762000229620001d0565b5b80604052505050565b5f6200023e620001ab565b90506200024c8282620001fd565b919050565b5f67ffffffffffffffff8211156200026e576200026d620001d0565b5b602082029050602081019050919050565b5f80fd5b5f80fd5b5f67ffffffffffffffff821115620002a457620002a3620001d0565b5b620002af82620001c0565b9050602081019050919050565b5f5b83811015620002db578082015181840152602081019050620002be565b5f8484015250505050565b5f620002fc620002f68462000287565b62000233565b9050828152602081018484840111156200031b576200031a62000283565b5b62000328848285620002bc565b509392505050565b5f82601f830112620003475762000346620001bc565b5b815162000359848260208601620002e6565b91505092915050565b5f62000378620003728462000251565b62000233565b905080838252602082019050602084028301858111156200039e576200039d6200027f565b5b835b81811015620003ec57805167ffffffffffffffff811115620003c757620003c6620001bc565b5b808601620003d6898262000330565b85526020850194505050602081019050620003a0565b5050509392505050565b5f82601f8301126200040d576200040c620001bc565b5b81516200041f84826020860162000362565b91505092915050565b5f6020828403121562000440576200043f620001b4565b5b5f82015167ffffffffffffffff81111562000460576200045f620001b8565b5b6200046e84828501620003f6565b91505092915050565b7f4e487b71000000000000000000000000000000000000000000000000000000005f52602160045260245ffd5b7f4e487b71000000000000000000000000000000000000000000000000000000005f52603260045260245ffd5b5f81519050919050565b7f4e487b71000000000000000000000000000000000000000000000000000000005f52602260045260245ffd5b5f60028204905060018216806200052057607f821691505b602082108103620005365762000535620004db565b5b50919050565b5f819050815f5260205f209050919050565b5f6020601f8301049050919050565b5f82821b905092915050565b5f600883026200059a7fffffffffffffffffffffffffffffffffffffffffffffffffffffffffffffffff826200055d565b620005a686836200055d565b95508019841693508086168417925050509392505050565b5f819050919050565b5f819050919050565b5f620005f0620005ea620005e484620005be565b620005c7565b620005be565b9050919050565b5f819050919050565b6200060b83620005d0565b620006236200061a82620005f7565b84845462000569565b825550505050565b5f90565b620006396200062b565b6200064681848462000600565b505050565b5b818110156200066d57620006615f826200062f565b6001810190506200064c565b5050565b601f821115620006bc5762000686816200053c565b62000691846200054e565b81016020851015620006a1578190505b620006b9620006b0856200054e565b8301826200064b565b50505b505050565b5f82821c905092915050565b5f620006de5f1984600802620006c1565b1980831691505092915050565b5f620006f88383620006cd565b9150826002028217905092915050565b6200071382620004d1565b67ffffffffffffffff8111156200072f576200072e620001d0565b5b6200073b825462000508565b6200074882828562000671565b5f60209050601f8311600181146200077e575f841562000769578287015190505b620007758582620006eb565b865550620007e4565b601f1984166200078e866200053c565b5f5b82811015620007b75784890151825560018201915060208501945060208101905062000790565b86831015620007d75784890151620007d3601f891682620006cd565b8355505b6001600288020188555050505b505050505050565b7f4e487b71000000000000000000000000000000000000000000000000000000005f52601160045260245ffd5b5f6200082582620005be565b91507fffffffffffffffffffffffffffffffffffffffffffffffffffffffffffffffff82036200085a5762000859620007ec565b5b600182019050919050565b6117fa80620008735f395ff3fe608060405234801561000f575f80fd5b506004361061009c575f3560e01c8063a3ec138d11610064578063a3ec138d14610131578063a999e56214610163578063b92239461461017f578063c19d93fb14610189578063d28178d7146101a75761009c565b80630121b93f146100a05780632e4176cf146100bc5780633477ee2e146100da5780634c0a6af01461010b5780639e7b8d6114610115575b5f80fd5b6100ba60048036038101906100b59190610bac565b6101c5565b005b6100c4610375565b6040516100d19190610c16565b60405180910390f35b6100f460048036038101906100ef9190610bac565b610398565b604051610102929190610cc8565b60405180910390f35b61011361044d565b005b61012f600480360381019061012a9190610d20565b61057a565b005b61014b60048036038101906101469190610d20565b610725565b60405161015a93929190610d65565b60405180910390f35b61017d60048036038101906101789190610fa8565b610757565b005b61018761088d565b005b6101916109bb565b60405161019e9190611062565b60405180910390f35b6101af6109cd565b6040516101bc919061107b565b60405180910390f35b600160028111156101d9576101d8610fef565b5b60035f9054906101000a900460ff1660028111156101fa576101f9610fef565b5b1461023a576040517f08c379a0000000000000000000000000000000000000000000000000000000008152600401610231906110e5565b60405180910390fd5b5f60015f3373ffffffffffffffffffffffffffffffffffffffff1673ffffffffffffffffffffffffffffffffffffffff1681526020019081526020015f2090505f815f0154036102bf576040517f08c379a00000000000000000000000000000000000000000000000000000000081526004016102b69061114d565b60405180910390fd5b806001015f9054906101000a900460ff1615610310576040517f08c379a0000000000000000000000000000000000000000000000000000000008152600401610307906111b5565b60405180910390fd5b6001816001015f6101000a81548160ff021916908315150217905550818160020181905550805f01546002838154811061034d5761034c6111d3565b5b905f5260205f2090600202016001015f82825461036a919061122d565b925050819055505050565b5f8054906101000a900473ffffffffffffffffffffffffffffffffffffffff1681565b600281815481106103a7575f80fd5b905f5260205f2090600202015f91509050805f0180546103c69061128d565b80601f01602080910402602001604051908101604052809291908181526020018280546103f29061128d565b801561043d5780601f106104145761010080835404028352916020019161043d565b820191905f5260205f20905b81548152906001019060200180831161042057829003601f168201915b5050505050908060010154905082565b5f8054906101000a900473ffffffffffffffffffffffffffffffffffffffff1673ffffffffffffffffffffffffffffffffffffffff163373ffffffffffffffffffffffffffffffffffffffff16146104da576040517f08c379a00000000000000000000000000000000000000000000000000000000081526004016104d19061132d565b60405180910390fd5b5f60028111156104ed576104ec610fef565b5b60035f9054906101000a900460ff16600281111561050e5761050d610fef565b5b1461054e576040517f08c379a000000000000000000000000000000000000000000000000000000000815260040161054590611395565b60405180910390fd5b600160035f6101000a81548160ff0219169083600281111561057357610572610fef565b5b0217905550565b5f8054906101000a900473ffffffffffffffffffffffffffffffffffffffff1673ffffffffffffffffffffffffffffffffffffffff163373ffffffffffffffffffffffffffffffffffffffff1614610607576040517f08c379a00000000000000000000000000000000000000000000000000000000081526004016105fe90611423565b60405180910390fd5b60015f8273ffffffffffffffffffffffffffffffffffffffff1673ffffffffffffffffffffffffffffffffffffffff1681526020019081526020015f206001015f9054906101000a900460ff1615610694576040517f08c379a000000000000000000000000000000000000000000000000000000000815260040161068b9061148b565b60405180910390fd5b5f60015f8373ffffffffffffffffffffffffffffffffffffffff1673ffffffffffffffffffffffffffffffffffffffff1681526020019081526020015f205f0154146106de575f80fd5b6001805f8373ffffffffffffffffffffffffffffffffffffffff1673ffffffffffffffffffffffffffffffffffffffff1681526020019081526020015f205f018190555050565b6001602052805f5260405f205f91509050805f015490806001015f9054906101000a900460ff16908060020154905083565b60028081111561076a57610769610fef565b5b60035f9054906101000a900460ff16600281111561078b5761078a610fef565b5b146107cb576040517f08c379a00000000000000000000000000000000000000000000000000000000081526004016107c2906114f3565b60405180910390fd5b5f60035f6101000a81548160ff021916908360028111156107ef576107ee610fef565b5b02179055505f5b8151811015610889576002604051806040016040528084848151811061081f5761081e6111d3565b5b602002602001015181526020015f815250908060018154018082558091505060019003905f5260205f2090600202015f909190919091505f820151815f01908161086991906116ae565b5060208201518160010155505080806108819061177d565b9150506107f6565b5050565b5f8054906101000a900473ffffffffffffffffffffffffffffffffffffffff1673ffffffffffffffffffffffffffffffffffffffff163373ffffffffffffffffffffffffffffffffffffffff161461091a576040517f08c379a00000000000000000000000000000000000000000000000000000000081526004016109119061132d565b60405180910390fd5b6001600281111561092e5761092d610fef565b5b60035f9054906101000a900460ff16600281111561094f5761094e610fef565b5b1461098f576040517f08c379a0000000000000000000000000000000000000000000000000000000008152600401610986906110e5565b60405180910390fd5b600260035f6101000a81548160ff021916908360028111156109b4576109b3610fef565b5b0217905550565b60035f9054906101000a900460ff1681565b60606002808111156109e2576109e1610fef565b5b60035f9054906101000a900460ff166002811115610a0357610a02610fef565b5b14610a43576040517f08c379a0000000000000000000000000000000000000000000000000000000008152600401610a3a906114f3565b60405180910390fd5b5f805b600280549050811015610b63578160028281548110610a6857610a676111d3565b5b905f5260205f209060020201600101541115610b505760028181548110610a9257610a916111d3565b5b905f5260205f20906002020160010154915060028181548110610ab857610ab76111d3565b5b905f5260205f2090600202015f018054610ad19061128d565b80601f0160208091040260200160405190810160405280929190818152602001828054610afd9061128d565b8015610b485780601f10610b1f57610100808354040283529160200191610b48565b820191905f5260205f20905b815481529060010190602001808311610b2b57829003601f168201915b505050505092505b8080610b5b9061177d565b915050610a46565b505090565b5f604051905090565b5f80fd5b5f80fd5b5f819050919050565b610b8b81610b79565b8114610b95575f80fd5b50565b5f81359050610ba681610b82565b92915050565b5f60208284031215610bc157610bc0610b71565b5b5f610bce84828501610b98565b91505092915050565b5f73ffffffffffffffffffffffffffffffffffffffff82169050919050565b5f610c0082610bd7565b9050919050565b610c1081610bf6565b82525050565b5f602082019050610c295f830184610c07565b92915050565b5f81519050919050565b5f82825260208201905092915050565b5f5b83811015610c66578082015181840152602081019050610c4b565b5f8484015250505050565b5f601f19601f8301169050919050565b5f610c8b82610c2f565b610c958185610c39565b9350610ca5818560208601610c49565b610cae81610c71565b840191505092915050565b610cc281610b79565b82525050565b5f6040820190508181035f830152610ce08185610c81565b9050610cef6020830184610cb9565b9392505050565b610cff81610bf6565b8114610d09575f80fd5b50565b5f81359050610d1a81610cf6565b92915050565b5f60208284031215610d3557610d34610b71565b5b5f610d4284828501610d0c565b91505092915050565b5f8115159050919050565b610d5f81610d4b565b82525050565b5f606082019050610d785f830186610cb9565b610d856020830185610d56565b610d926040830184610cb9565b949350505050565b5f80fd5b7f4e487b71000000000000000000000000000000000000000000000000000000005f52604160045260245ffd5b610dd482610c71565b810181811067ffffffffffffffff82111715610df357610df2610d9e565b5b80604052505050565b5f610e05610b68565b9050610e118282610dcb565b919050565b5f67ffffffffffffffff821115610e3057610e2f610d9e565b5b602082029050602081019050919050565b5f80fd5b5f80fd5b5f67ffffffffffffffff821115610e6357610e62610d9e565b5b610e6c82610c71565b9050602081019050919050565b828183375f83830152505050565b5f610e99610e9484610e49565b610dfc565b905082815260208101848484011115610eb557610eb4610e45565b5b610ec0848285610e79565b509392505050565b5f82601f830112610edc57610edb610d9a565b5b8135610eec848260208601610e87565b91505092915050565b5f610f07610f0284610e16565b610dfc565b90508083825260208201905060208402830185811115610f2a57610f29610e41565b5b835b81811015610f7157803567ffffffffffffffff811115610f4f57610f4e610d9a565b5b808601610f5c8982610ec8565b85526020850194505050602081019050610f2c565b5050509392505050565b5f82601f830112610f8f57610f8e610d9a565b5b8135610f9f848260208601610ef5565b91505092915050565b5f60208284031215610fbd57610fbc610b71565b5b5f82013567ffffffffffffffff811115610fda57610fd9610b75565b5b610fe684828501610f7b565b91505092915050565b7f4e487b71000000000000000000000000000000000000000000000000000000005f52602160045260245ffd5b6003811061102d5761102c610fef565b5b50565b5f81905061103d8261101c565b919050565b5f61104c82611030565b9050919050565b61105c81611042565b82525050565b5f6020820190506110755f830184611053565b92915050565b5f6020820190508181035f8301526110938184610c81565b905092915050565b7f6974206d75737420626520696e20566f74696e6720506572696f6400000000005f82015250565b5f6110cf601b83610c39565b91506110da8261109b565b602082019050919050565b5f6020820190508181035f8301526110fc816110c3565b9050919050565b7f486173206e6f20726967687420746f20766f74650000000000000000000000005f82015250565b5f611137601483610c39565b915061114282611103565b602082019050919050565b5f6020820190508181035f8301526111648161112b565b9050919050565b7f416c726561647920766f7465642e0000000000000000000000000000000000005f82015250565b5f61119f600e83610c39565b91506111aa8261116b565b602082019050919050565b5f6020820190508181035f8301526111cc81611193565b9050919050565b7f4e487b71000000000000000000000000000000000000000000000000000000005f52603260045260245ffd5b7f4e487b71000000000000000000000000000000000000000000000000000000005f52601160045260245ffd5b5f61123782610b79565b915061124283610b79565b925082820190508082111561125a57611259611200565b5b92915050565b7f4e487b71000000000000000000000000000000000000000000000000000000005f52602260045260245ffd5b5f60028204905060018216806112a457607f821691505b6020821081036112b7576112b6611260565b5b50919050565b7f4f6e6c79206368616972706572736f6e2063616e20737461727420616e6420655f8201527f6e642074686520766f74696e6700000000000000000000000000000000000000602082015250565b5f611317602d83610c39565b9150611322826112bd565b604082019050919050565b5f6020820190508181035f8301526113448161130b565b9050919050565b7f6974206d75737420626520696e205374617274656400000000000000000000005f82015250565b5f61137f601583610c39565b915061138a8261134b565b602082019050919050565b5f6020820190508181035f8301526113ac81611373565b9050919050565b7f4f6e6c79206368616972706572736f6e2063616e2067697665207269676874205f8201527f746f20766f74652e000000000000000000000000000000000000000000000000602082015250565b5f61140d602883610c39565b9150611418826113b3565b604082019050919050565b5f6020820190508181035f83015261143a81611401565b9050919050565b7f54686520766f74657220616c726561647920766f7465642e00000000000000005f82015250565b5f611475601883610c39565b915061148082611441565b602082019050919050565b5f6020820190508181035f8301526114a281611469565b9050919050565b7f6974206d75737420626520696e20456e64656420506572696f640000000000005f82015250565b5f6114dd601a83610c39565b91506114e8826114a9565b602082019050919050565b5f6020820190508181035f83015261150a816114d1565b9050919050565b5f819050815f5260205f209050919050565b5f6020601f8301049050919050565b5f82821b905092915050565b5f6008830261156d7fffffffffffffffffffffffffffffffffffffffffffffffffffffffffffffffff82611532565b6115778683611532565b95508019841693508086168417925050509392505050565b5f819050919050565b5f6115b26115ad6115a884610b79565b61158f565b610b79565b9050919050565b5f819050919050565b6115cb83611598565b6115df6115d7826115b9565b84845461153e565b825550505050565b5f90565b6115f36115e7565b6115fe8184846115c2565b505050565b5b81811015611621576116165f826115eb565b600181019050611604565b5050565b601f8211156116665761163781611511565b61164084611523565b8101602085101561164f578190505b61166361165b85611523565b830182611603565b50505b505050565b5f82821c905092915050565b5f6116865f198460080261166b565b1980831691505092915050565b5f61169e8383611677565b9150826002028217905092915050565b6116b782610c2f565b67ffffffffffffffff8111156116d0576116cf610d9e565b5b6116da825461128d565b6116e5828285611625565b5f60209050601f831160018114611716575f8415611704578287015190505b61170e8582611693565b865550611775565b601f19841661172486611511565b5f5b8281101561174b57848901518255600182019150602085019450602081019050611726565b868310156117685784890151611764601f891682611677565b8355505b6001600288020188555050505b505050505050565b5f61178782610b79565b91507fffffffffffffffffffffffffffffffffffffffffffffffffffffffffffffffff82036117b9576117b8611200565b5b60018201905091905056fea2646970667358221220e1fff820abdbbf506b01161f64748d9df9d126c4145e28e0afb1b7b0cf8f5b9264736f6c63430008140033","linkReferences":{}},"methodIdentifiers":{"addCandidates(string[])":"a999e562","candidates(uint256)":"3477ee2e","chairperson()":"2e4176cf","endVote()":"b9223946","giveRightToVote(address)":"9e7b8d61","startVote()":"4c0a6af0","state()":"c19d93fb","vote(uint256)":"0121b93f","voters(address)":"a3ec138d","winningCandidate()":"d28178d7"},"id":0}